{
  "contractName": "testContract",
  "abi": [
    {
      "inputs": [
        {
          "internalType": "uint256",
          "name": "_value",
          "type": "uint256"
        }
      ],
      "name": "setvalue",
      "outputs": [],
      "stateMutability": "nonpayable",
      "type": "function"
    },
    {
      "inputs": [],
      "name": "getValue",
      "outputs": [
        {
          "internalType": "uint256",
          "name": "",
          "type": "uint256"
        }
      ],
      "stateMutability": "view",
      "type": "function",
      "constant": true
    }
  ],
  "bytecode": "0x608060405234801561001057600080fd5b506101e1806100206000396000f3fe608060405234801561001057600080fd5b50600436106100365760003560e01c80630b4745ec1461003b5780632096525514610057575b600080fd5b610055600480360381019061005091906100cf565b610075565b005b61005f61008b565b60405161006c919061010b565b60405180910390f35b6001816100829190610155565b60008190555050565b60008054905090565b600080fd5b6000819050919050565b6100ac81610099565b81146100b757600080fd5b50565b6000813590506100c9816100a3565b92915050565b6000602082840312156100e5576100e4610094565b5b60006100f3848285016100ba565b91505092915050565b61010581610099565b82525050565b600060208201905061012060008301846100fc565b92915050565b7f4e487b7100000000000000000000000000000000000000000000000000000000600052601160045260246000fd5b600061016082610099565b915061016b83610099565b9250827fffffffffffffffffffffffffffffffffffffffffffffffffffffffffffffffff038211156101a05761019f610126565b5b82820190509291505056fea2646970667358221220ba01b2e3777f7215191017e8d7d66dfe12c0e5d8c773334b53f91276ba2a3f0264736f6c634300080b0033",
  "immutableReferences": {},
  "source": "// SPDX-License-Identifier: MIT\npragma solidity >=0.4.22 <0.9.0;\n\ncontract testContract {\n  uint value;\n  \n  function setvalue(uint _value) public{\n      value = _value+1;\n  }\n\n  function getValue() public view returns(uint){\n      return value;\n  }\n}\n",
  "sourcePath": "/home/programmer-0/lushiv-git/master-web3js-ethereum/truffle_web_app/contracts/test.sol",
  "compiler": {
    "name": "solc",
    "version": "0.8.11+commit.d7f03943.Emscripten.clang"
  },
  "schemaVersion": "3.4.4",
  "updatedAt": "2022-01-17T17:53:37.502Z",
  "networkType": "ethereum",
  "devdoc": {
    "kind": "dev",
    "methods": {},
    "version": 1
  },
  "userdoc": {
    "kind": "user",
    "methods": {},
    "version": 1
  }
}